:020000040800F2
:1000000000000120210500087105000871050008A5
:100010007105000871050008710500080000000066
:100020000000000000000000000000007105000852
:100030007105000800000000710500086503000854
:1000400071050008710500087105000871050008B8
:1000500071050008710500087105000871050008A8
:100060007105000871050008710500087105000898
:100070007105000871050008710500087105000888
:100080007105000871050008710500087105000878
:100090007105000871050008710500087105000868
:1000A0007105000871050008710500087105000858
:1000B0007105000800000000000000007105000844
:1000C0007105000800000000000000007105000834
:1000D0000000000071050008710500080000000024
:1000E0007105000871050008000000000000000014
:1000F0000000000000000000000000000000000000
:100100000000000000000000000000007105000871
:1001100000000000000000005D07000871050008F5
:1001200071050008710500087105000871050008D7
:100130007105000800000000000000000000000041
:1001400071050008710500087105000871050008B7
:1001500071050008710500087105000871050008A7
:100160007105000871050008710500080000000015
:100170007105000871050008000000000000000083
:0C018000710500087105000871050008F9
:10018C0010B5054C237833B9044B13B10448AFF3C5
:10019C0000800123237010BD3404002000000000F7
:1001AC006C07000808B5034B1BB103490348AFF3B8
:1001BC00008008BD00000000380400206C07000817
:1001CC0070B50D4E0D4D761BB61006D0002455F8AB
:1001DC00043B01349847A642F9D1094E094D761BD0
:1001EC0000F0BEFAB61006D0002455F8043B0134DA
:1001FC009847A642F9D170BDC8070008C807000887
:10020C00D0070008C8070008024B13B1024800F0E1
:10021C0005B87047000000003502000800230146B5
:10022C001A46184600F01AB838B5084B084D5B1B37
:10023C009C1007D0043B1D44013C55F804399847E9
:10024C00002CF9D1BDE8384000F090BAD407000872
:10025C00D0070008704700BF704700BF2DE9F0477A
:10026C00DFF880A00646DAF8000098460F46914663
:10027C00FFF7F0FF1A4B1B68D3F8484124B36568AD
:10028C001F2D26DC5EB96B1C0235DAF800006360AA
:10029C0044F82570FFF7E0FF0020BDE8F08704EB81
:1002AC0085010123C1F88890D4F88821AB401A430A
:1002BC00022EC4F88821C1F80881E4D1D4F88C212D
:1002CC001343C4F88C31DEE703F5A674C3F8484138
:1002DC00D5E7DAF80000FFF7BFFF4FF0FF30DCE79F
:1002EC00840700082804002008B5174B4FF48072CF
:1002FC001A60154B1B6813F4806FFAD0124B9A6876
:10030C0022F003029A609A6842F001029A600E4B46
:10031C009B6813F0040FFAD000F090F80B4B1B689D
:10032C000B4AA2FB03239B09013BB3F1807F0AD24A
:10033C004FF0E0225361074BF02183F82310002388
:10034C0093610723136108BD001002402C040020A8
:10035C00D34D621000ED00E0024A136801331360C4
:10036C00704700BF54040020134AD36C43F00203BF
:10037C00D364124B1A6842F040021A601A6822F0D9
:10038C0080021A601A6822F480421A601A6822F4F9
:10039C0000421A609A6822F480429A609A6842F489
:1003AC0000429A60DA6842F48042DA60DA6822F439
:1003BC000042DA60704700BF0010024000040048A1
:1003CC0008B5FFF791FFFFF7CFFF0A4C0122082178
:1003DC00204600F0EFF84FF4FA7000F0D7F8002246
:1003EC000821204600F0E6F84FF4FA7000F0CEF841
:1003FC00EBE700BF000400480E4AD2F8883043F403
:10040C007003C2F888300C4B1A6842F001021A6073
:10041C00002199601A6822F0A85222F410221A6066
:10042C004FF48052DA601A6822F480221A609961C3
:10043C00704700BF00ED00E0001002402F4B1B681E
:10044C0013F0080F16D12D4BD3F89430C3F30323BC
:10045C002B4A52F82320294B9B6803F00C030C2BDE
:10046C0048D8DFE803F00C4747470F474747134787
:10047C0047471700214B1B68C3F30313E8E7214BD5
:10048C001A6028E01F4B204A1A6024E01D4B1F4ABB
:10049C001A6020E0194BD96801F00301DB68C3F343
:1004AC0002130133022904D003291FD0B2FBF3F24B
:1004BC0002E0154AB2FBF3F21049CB68C3F30623F2
:1004CC0002FB03F3CA68C2F3416201325200B3FB70
:1004DC00F2F30C4A1360094B9B68C3F303130C4AE9
:1004EC00D15C084A1368CB4013607047074AB2FBD3
:1004FC00F3F2E1E7034B1A60EDE700BF0010024096
:10050C00980700082C0400200024F40000127A0044
:10051C0088070008DFF834D0FFF76EFF002103E0F6
:10052C000B4B5B58435004310A480B4B42189A4210
:10053C00F6D30A4A02E0002342F8043B084B9A42E5
:10054C00F9D3FFF73DFEFFF73BFFFEE7000001206C
:10055C00D4070008000000203404002034040020DC
:10056C00A8040020FEE70000034B1B78034A116827
:10057C000B441360704700BF300400205804002067
:10058C00014B1868704700BF5804002038B504466A
:10059C00FFF7F6FF0546B4F1FF3F02D0044B1B7882
:1005AC001C44FFF7EDFF401BA042FAD338BD00BF3F
:1005BC00300400200AB18161704781627047704736
:1005CC0070477047704770B504460368DE681D6954
:1005DC0015F0020F10D016F0020F0DD06FF00202C2
:1005EC001A610123037703689B6913F0030F64D02E
:1005FC00FFF7E6FF0023237715F0040F12D016F057
:10060C00040F0FD023686FF004021A6102232377C2
:10061C0023689B6913F4407F55D02046FFF7D0FF29
:10062C000023237715F0080F12D016F0080F0FD007
:10063C0023686FF008021A61042323772368DB69AF
:10064C0013F0030F46D02046FFF7BAFF00232377A1
:10065C0015F0100F12D016F0100F0FD023686FF09A
:10066C0010021A61082323772368DB6913F4407F97
:10067C0037D02046FFF7A4FF0023237715F0010F96
:10068C0002D016F0010F33D115F0800F02D016F006
:10069C00800F35D115F4807F02D016F0800F37D142
:1006AC0015F0400F02D016F0400F39D115F0200F85
:1006BC0002D016F0200F3BD170BDFFF780FF204613
:1006CC00FFF77FFF96E72046FFF779FF2046FFF7FD
:1006DC0078FFA5E72046FFF772FF2046FFF771FF72
:1006EC00B4E72046FFF76BFF2046FFF76AFFC3E72E
:1006FC0023686FF001021A61204600F024F8C3E76A
:10070C0023686FF080021A61204600F01AF8C1E7E6
:10071C0023686FF480721A61204600F013F8BFE76B
:10072C0023686FF040021A612046FFF74BFFBDE7CC
:10073C0023686FF020021A61204600F001F8BBE735
:10074C0070477047704708B5FFF70EFF08BD0000F3
:10075C0008B50248FFF737FF08BD00BF5C04002056
:10076C00F8B500BFF8BC08BC9E467047F8B500BF92
:08077C00F8BC08BC9E46704762
:10078400000000200000000000000000010203043B
:1007940006070809A0860100400D0300801A060020
:1007A40000350C0040420F0080841E0000093D000B
:1007B40000127A000024F40000366E010048E801BB
:0407C400006CDC02E7
:0807C80015020008B101000850
:0407D0008D0100088F
:1007D40000000000EC02002054030020BC030020B1
:1007E4000000000000000000000000000000000005
:1007F40000000000000000000000000000000000F5
:1008040000000000000000000000000000000000E4
:1008140000000000000000000000000000000000D4
:1008240000000000000000000000000000000000C4
:1008340000000000000000000000000000000000B4
:1008440000000000000000000000000000000000A4
:100854000000000000000000000000000000000094
:100864000000000000000000000000000000000084
:100874000000000000000000010000000000000073
:100884000E33CDAB34126DE6ECDE05000B00000038
:100894000000000000000000000000000000000054
:1008A4000000000000000000000000000000000044
:1008B4000000000000000000000000000000000034
:1008C4000000000000000000000000000000000024
:100BF40000000000000000005004002000093D0037
:040C040001000000EB
:0400000508000521C9
:00000001FF
